:100000000C9462000C948A000C948A000C948A0070
:100010000C948A000C948A000C948A000C948A0038
:100020000C948A000C948A000C948A000C948A0028
:100030000C948A000C948A000C948A000C948A0018
:100040000C9422030C948A000C94F0020C94CA02C3
:100050000C948A000C948A000C948A000C948A00F8
:100060000C948A000C948A000000000024002700F1
:100070002A0000000000250028002B0000000000DE
:1000800023002600290004040404040404040202DA
:100090000202020203030303030301020408102007
:1000A0004080010204081020010204081020000012
:1000B0000008000201000003040700000000000027
:1000C00000001D0511241FBECFEFD8E0DEBFCDBF5D
:1000D00011E0A0E0B1E0E4EAFAE002C005900D9280
:1000E000A83AB107D9F722E0A8EAB1E001C01D9211
:1000F000A635B207E1F710E0C2E6D0E004C02197D0
:10010000FE010E944A05C136D107C9F70E946C035F
:100110000C9450050C940000AF92BF92CF92DF92E6
:10012000EF92FF920F931F93CF93DF936C017B01AC
:100130008B01040F151FEB015E01AE18BF08C0173D
:10014000D10759F06991D601ED91FC910190F081B0
:10015000E02DC6010995892B79F7C501DF91CF9173
:100160001F910F91FF90EF90DF90CF90BF90AF90D5
:100170000895FC01538D448D252F30E0842F90E0AD
:10018000821B930B541710F0CF9608950197089592
:10019000FC01918D828D981761F0A28DAE0FBF2F5B
:1001A000B11D5D968C91928D9F5F9F73928F90E0B1
:1001B00008958FEF9FEF0895FC01918D828D981720
:1001C00031F0828DE80FF11D858D90E008958FEF5D
:1001D0009FEF0895FC01918D228D892F90E0805C26
:1001E0009F4F821B91098F739927089589EB91E0A6
:1001F0000E94EA0021E0892B09F420E0822F089573
:1002000080E090E0892B29F00E94F60081110C9487
:1002100000000895FC01A48DA80FB92FB11DA35AA9
:10022000BF4F2C91848D90E001968F739927848F16
:10023000A689B7892C93A089B1898C918370806439
:100240008C93938D848D981306C00288F389E02DDA
:1002500080818F7D80830895EF92FF920F931F938B
:10026000CF93DF93EC0181E0888F9B8D8C8D981369
:100270001AC0E889F989808185FF15C09FB7F89475
:10028000EE89FF896083E889F989808183708064C1
:1002900080839FBF81E090E0DF91CF911F910F910C
:1002A000FF90EF900895F62E0B8D10E00F5F1F4F1B
:1002B0000F731127E02E8C8D8E110CC00FB607FC2A
:1002C000FACFE889F989808185FFF5CFCE010E94B8
:1002D0000A01F1CFEB8DEC0FFD2FF11DE35AFF4F1B
:1002E000F0829FB7F8940B8FEA89FB898081806246
:1002F000CFCFCF93DF93EC01888D8823B9F0AA8903
:10030000BB89E889F9898C9185FD03C0808186FDD0
:100310000DC00FB607FCF7CF8C9185FFF2CF80811F
:1003200085FFEDCFCE010E940A01E9CFDF91CF9189
:100330000895833081F028F4813099F08230A9F05B
:1003400008958730A9F08830C9F08430B1F48091E5
:1003500080008F7D03C0809180008F778093800024
:10036000089584B58F7784BD089584B58F7DFBCFC4
:100370008091B0008F778093B00008958091B00095
:100380008F7DF9CFCF93DF93282F30E0F901E2552D
:10039000FF4F8491F901E656FF4FD491F901EA57D6
:1003A000FF4FC491CC23A1F081110E949901EC2F41
:1003B000F0E0EE0FFF1FE458FF4FA591B491EC91D0
:1003C000ED2381E090E009F480E0DF91CF91089582
:1003D00080E090E0FACF1F93CF93DF93282F30E097
:1003E000F901E255FF4F8491F901E656FF4FD49190
:1003F000F901EA57FF4FC491CC23A9F0162F8111C0
:100400000E949901EC2FF0E0EE0FFF1FEE58FF4F16
:10041000A591B4918FB7F894EC91111108C0D095C3
:10042000DE23DC938FBFDF91CF911F910895DE2BE8
:10043000F8CFCF93DF9390E0FC01E656FF4F249175
:100440008A579F4FFC0184918823D1F090E0880F58
:10045000991FFC01E859FF4FA591B491FC01EE589A
:10046000FF4FC591D49161110EC09FB7F8948C9144
:10047000E22FE0958E238C932881E223E8839FBFAF
:10048000DF91CF9108958FB7F894EC91E22BEC9324
:100490008FBFF6CF3FB7F8948091AD019091AE0138
:1004A000A091AF01B091B00126B5A89B05C02F3F28
:1004B00019F00196A11DB11D3FBFBA2FA92F982F8A
:1004C0008827BC01CD01620F711D811D911D42E085
:1004D000660F771F881F991F4A95D1F708958F924D
:1004E0009F92AF92BF92CF92DF92EF92FF924B0119
:1004F0005C010E944A026B017C010E944A026C1955
:100500007D098E099F09683E734081059105A8F316
:1005100021E0821A9108A108B10888EEC80E83E094
:10052000D81EE11CF11C81149104A104B10429F727
:10053000FF90EF90DF90CF90BF90AF909F908F9003
:1005400008952FB7F8946091A9017091AA01809144
:10055000AB019091AC012FBF0895CF93DF93FC01C5
:1005600001900020E9F73197AF01481B590BBC01FE
:1005700089EB91E00E948C00EC0142E050E062E1E6
:1005800071E089EB91E00E948C008C0F9D1FDF9140
:10059000CF9108951F920F920FB60F9211242F93AF
:1005A0003F934F935F936F937F938F939F93AF93FB
:1005B000BF93EF93FF9389EB91E00E940A01FF91B3
:1005C000EF91BF91AF919F918F917F916F915F91CB
:1005D0004F913F912F910F900FBE0F901F90189544
:1005E0001F920F920FB60F9211242F938F939F9308
:1005F000EF93FF93E091C901F091CA018081E091EE
:10060000CF01F091D00182FD1BC090818091D20179
:100610008F5F8F732091D301821741F0E091D20157
:10062000F0E0E754FE4F958F8093D201FF91EF9158
:100630009F918F912F910F900FBE0F901F90189543
:100640008081F4CF1F920F920FB60F9211242F9337
:100650003F938F939F93AF93BF938091A901909104
:10066000AA01A091AB01B091AC013091A80123E0A7
:10067000230F2D3758F50196A11DB11D2093A80118
:100680008093A9019093AA01A093AB01B093AC0110
:100690008091AD019091AE01A091AF01B091B001F8
:1006A0000196A11DB11D8093AD019093AE01A09361
:1006B000AF01B093B001BF91AF919F918F913F91E6
:1006C0002F910F900FBE0F901F90189526E8230FC3
:1006D0000296A11DB11DD2CF789484B5826084BDED
:1006E00084B5816084BD85B5826085BD85B5816036
:1006F00085BD80916E00816080936E0010928100B4
:10070000809181008260809381008091810081606E
:10071000809381008091800081608093800080912F
:10072000B10084608093B1008091B00081608093BB
:10073000B00080917A00846080937A0080917A0082
:10074000826080937A0080917A00816080937A0041
:1007500080917A00806880937A001092C100E091C5
:10076000C901F091CA0182E08083E091C501F09156
:10077000C6011082E091C701F091C80180E1808339
:100780001092D101E091CD01F091CE0186E08083FD
:10079000E091CB01F091CC01808180618083E09178
:1007A000CB01F091CC01808188608083E091CB0106
:1007B000F091CC01808180688083E091CB01F09141
:1007C000CC0180818F7D808360E085E00E941902EA
:1007D00060E084E00E94190261E081E10E94190258
:1007E00060E084E00E94EB0160E085E00E94EB01A4
:1007F00068E873E180E090E00E946F0285E191E09B
:100800000E94AD02C0E0D0E002E010E083E0E82EFC
:10081000F12C84E00E94C201019709F5C090B70154
:10082000D090B801C114D10409F098C085E00E94AD
:10083000C2018130910509F091C09093B801809375
:10084000B7010E94A1026093B3017093B401809339
:10085000B5019093B6018AE291E00E94AD0284E076
:100860000E94C201892B91F48FE491E00E94AD02B5
:100870000E94A1026093B3017093B4018093B5010B
:100880009093B6011093B8010093B7018091B7011E
:100890009091B801029799F484E00E94C2010197F7
:1008A00071F461E070E080E090E00E946F028FE5FB
:1008B00091E00E94AD02F092B801E092B701809100
:1008C000B7019091B8010397D9F485E00E94C20165
:1008D0006C0181E0C816D10409F07CC00E94A1021D
:1008E0006093B3017093B4018093B5019093B60106
:1008F0008EE691E00E94AD02D092B801C092B7019D
:100900008091B7019091B80160E0009719F00197CC
:1009100021F461E081E10E94EB0185E00E94C201C7
:100920006C0181E0C816D10471F40E94A1026093A9
:10093000B3017093B4018093B5019093B601D09246
:10094000B201C092B101209709F463CF0E94F60072
:10095000882309F45ECF0E9400005BCF8091B10133
:100960009091B201019709F07ACFCA94CD2809F08D
:1009700076CF85E00E94C201892B09F070CF0E94DA
:10098000A1028090B3019090B401A090B501B09005
:10099000B601681979098A099B0961157C45864267
:1009A000954009F05CCF85E00E94C201892B09F0D7
:1009B00056CF1092B8011092B7010E94A102609325
:1009C000B3017093B4018093B5019093B60189E9A6
:1009D00091E043CF85E00E94C201019709F49DCFC9
:1009E0000E94A1028090B3019090B401A090B50143
:1009F000B090B601681979098A099B09683C7F4A59
:100A00008105910509F089CF85E00E94C201892BFB
:100A100009F083CF1092B8011092B7010E94A10291
:100A20006093B3017093B4018093B5019093B601C4
:100A300082E891E00E94AD0263CFE9EBF1E013821E
:100A4000128288EE93E0A0E0B0E084839583A683D1
:100A5000B78384E091E09183808385EC90E0958773
:100A6000848784EC90E09787868780EC90E0918B78
:100A7000808B81EC90E0938B828B82EC90E0958B65
:100A8000848B86EC90E0978B868B118E128E138E62
:100A9000148E0895EE0FFF1F0590F491E02D099438
:040AA000F894FFCFF8
:100AA400000000002C018C00B9007901EA00C800A4
:100AB400DC000D0A0053697374656D204261C59FA3
:100AC4006C6174C4B16C64C4B1005661726CC4B11D
:100AD4006B20416C67C4B16C616E64C4B12C20524C
:100AE400C3B66C652041C3A7C4B16C64C4B1004BE8
:100AF4006170C4B12041C3A7C4B16C64C4B1004BDC
:100B04006170C4B1204B6170616E64C4B100566100
:100B1400726CC4B16B20416C67C4B16C616E64C407
:100B2400B1005661726CC4B16B20416C67C4B16C86
:100B3400616E6D6164C4B12C2052C3B66C65204BE8
:080B44006170616E64C4B10030
:00000001FF
